:020000020000FC
:1000000066C034E644E654E65A95F1F74A95D9F7C6
:100010003A95C1F7089534E644E64A95F1F73A95E2
:10002000D9F70895DC9AD89807FDD89ADA9806FD92
:10003000DA9AD99805FDD99ADB9804FDDB9A00007D
:10004000DD9A0000DD98E7DFD89803FDD89ADA98AA
:1000500002FDDA9AD99801FDD99ADB9800FDDB9A66
:100060000000DD9A0000DD98D6DF0895DC980BBB18
:100070000000DD9A0000DD98CEDF0895CCDF0AE0B5
:10008000F5DF0AE0F3DF0AE0F1DF02E0EFDF02E094
:10009000EDDF01E0EBDF0027E9DF07E0E7DF002726
:1000A000E5DF06E0E3DF0895C895002D003019F084
:1000B000B9DF3196F9CF089548656C6C6F20746F85
:1000C000000074686520776F726C6421000021E085
:1000D0002EBF2FE52DBFD898D09ADA98D29AD9980A
:1000E000D19ADB98D39ADD98D59ADC98D49AC6DF5A
:1000F0000027BCDF02E0BADFE8EBF0E0D5DF05E087
:10010000B5DF0027B3DFE2ECF0E0CEDF7ADF0027D7
:08011000ADDF08E0ABDFECCF2E
:00000001FF
