:020000020000FC
:1000000000C000E810E006BD16BD01E00EBD01E035
:100010000EBF0FE50DBFDF98D79ADE98D69A00E0A5
:10002000002E00E4102E00E8202E00EC302EE0E63A
:10003000F0E038E211922192119231923A95D1F783
:1000400022EF0BBA00E012E50BBD1ABD00270DBD73
:100050000CBD599A599BFECF1BBA00E012E80BBDAC
:100060001ABD00270DBD0CBD599A599BFECFE0E685
:10007000F0E030EA01910BBB3A95E1F71BBA00E0E2
:1000800016E40BBD1ABD00270DBD0CBD599A599B36
:10009000FECF2A9509F0D5CF25E00BBA00E012E596
:1000A0000BBD1ABD00270DBD0CBD599A599BFECF43
:1000B0001BBA04E01EE80BBD1ABD00270DBD0CBD28
:1000C000599A599BFECF2A9541F723E01BBA00E0CD
:1000D00012E50BBD1ABD00270DBD0CBD599A599BE9
:1000E000FECF0BBA04E01EE80BBD1ABD00270DBD04
:1000F0000CBD599A599BFECF2A9541F72CE00BBABB
:1001000000E012E50BBD1ABD00270DBD0CBD599ACC
:10011000599BFECF1BBA04E01EE80BBD1ABD002799
:100120000DBD0CBD599A599BFECF2A9541F788CF3A
:00000001FF
