:020000020000FC
:1000000031C00AE03095089410F4C29A02C0C29838
:10001000000013D012D036950A95B1F7089509E083
:10002000B39BFECF0AD009D008D08894B39B089424
:100030000A9511F04795F7CF08951DE01A95F1F74D
:100040000895C49A1FEF2FEF2A95F1F71A95D9F763
:10005000C4980895C895302D303019F0D2DF31960C
:10006000F9CF089511E01EBF1FE51DBFC298BA9ACF
:10007000C498BC9AD4DFECE7F0E0ECDF726563650E
:1000800069766564206368617261637465723A20A1
:0E0090000000342FB6DF3AE0B4DFD3DFEBCF51
:00000001FF
