:020000020000FC
:100000003AC008EC18E2DA9A1A95F1F71AE0DA9891
:100010001A95F1F70A95B1F7089508EC18E2D99A04
:100020001A95F1F71AE0D9981A95F1F70A95B1F7F0
:10003000089508EC18E2D89A1A95F1F71AE0D898C2
:100040001A95F1F70A95B1F7089508EC18E2DB9AD2
:100050001A95F1F71AE0DB981A95F1F70A95B1F7BE
:100060000895CFDFDADFF1DFE4DF0895E2DFEDDFCF
:10007000D4DFC7DF089500E810E006BD16BD01E03B
:100080000EBF0FE50DBFD898D09AD998D19ADA98BB
:10009000D29ADB98D39AE5DFE4DFE3DFE2DFE1DF4A
:1000A000E0DFDFDFDEDFE2DFE1DFE0DFDFDFDEDF5B
:0800B000DDDFDCDFDBDFEFCF59
:00000001FF
