:020000020000FC
:100000007AC008EC18E2DA9A1A95F1F71AE0DA9851
:100010001A95F1F70A95B1F7089508EC18E2D99A04
:100020001A95F1F71AE0D9981A95F1F70A95B1F7F0
:10003000089508EC18E2D89A1A95F1F71AE0D898C2
:100040001A95F1F70A95B1F7089508EC18E2DB9AD2
:100050001A95F1F71AE0DB981A95F1F70A95B1F7BE
:10006000089508EC18E2DA9AD89A1A95F1F71AE08E
:10007000DA98D8981A95F1F70A95A1F7089508EC3F
:1000800018E2DA9AD99A1A95F1F71AE0DA98D9981B
:100090001A95F1F70A95A1F7089508EC18E2DB9A92
:1000A000D89A1A95F1F71AE0DB98D8981A95F1F7D3
:1000B0000A95A1F7089508EC18E2DB9AD99A1A95E7
:1000C000F1F71AE0DB98D9981A95F1F70A95A1F79C
:1000D0000895C7DF96DFD3DFA0DFEDDFB6DFDDDF1A
:1000E000A8DF0895A6DFD9DFB0DFE5DF96DFC7DF41
:1000F00088DFB7DF089500E810E006BD16BD01E017
:100100000EBF0FE50DBFD898D09AD998D19ADA983A
:10011000D29ADB98D39ADDDFDCDFDBDFDADFD9DFF1
:10012000D8DFD7DFD6DFDEDFDDDFDCDFDBDFDADF06
:08013000D9DFD8DFD7DFEFCFE4
:00000001FF
