:020000020000FC
:1000000042C008EC18E2DA9AD89A1A95F1F71AE089
:10001000DA98D8981A95F1F70A95A1F7089508EC9F
:1000200018E2DA9AD99A1A95F1F71AE0DA98D9987B
:100030001A95F1F70A95A1F7089508EC18E2DB9AF2
:10004000D89A1A95F1F71AE0DB98D8981A95F1F733
:100050000A95A1F7089508EC18E2DB9AD99A1A9547
:10006000F1F71AE0DB98D9981A95F1F70A95A1F7FC
:100070000895C7DFD4DFEFDFE0DF0895DEDFEBDFD9
:10008000CEDFBFDF089500E810E006BD16BD01E039
:100090000EBF0FE50DBFD898D09AD998D19ADA98AB
:1000A000D29ADB98D39AE5DFE4DFE3DFE2DFE1DF3A
:1000B000E0DFDFDFDEDFE2DFE1DFE0DFDFDFDEDF4B
:0800C000DDDFDCDFDBDFEFCF49
:00000001FF
